:1000000019C028C027C026C025C024C023C022C0D4
:1000100022C020C01FC01EC01DC037C01BC01AC0D8
:1000200019C05DC017C016C015C014C013C012C0DF
:1000300011C010C011241FBECFEFCDBFDFE3DEBF64
:100040002FE3A0E0BFE301C01D92A73CB207E1F798
:100050006ED07FC1D5CF1F920F920FB60F92112491
:100060008F939F9381E080930B0A9091C53F9923D2
:1000700019F09091C23F89278093C23F9F918F9141
:100080000F900FBE0F901F9018951F920F920FB6F2
:100090000F9211248F93EF93FF9381E08093460A90
:1000A0008091C23F882381F08091C13F8F5F809310
:1000B000C13F803C10F01092C13FE091C13FF0E0A1
:1000C000EF5FF04C808101C08FE780938106FF9144
:1000D000EF918F910F900FBE0F901F9018951F9268
:1000E0000F920FB60F9211248F939F93EF93FF936C
:1000F000909110068091003F8F5F8093003F803C7D
:1001000010F01092003F84E8890F883008F49FE7D0
:10011000E091003FF0E0EF5FF04C9083FF91EF91B2
:100120009F918F910F900FBE0F901F90189593E0A5
:1001300088ED84BF90936100809111048860809362
:10014000110480911204886080931204809113043A
:100150008860809313048091160484608093160451
:100160008091A00083608093A00081E4809380064A
:100170008091170484608093170487E080930006C1
:1001800092E5909302068093060681E080930A062A
:10019000809308068093400A1092410A27E630E0D7
:1001A00020934C0A30934D0A8093450A9FE0909328
:1001B000000A21E830E02093260A3093270A809332
:1001C0000A0A7894DEE1C7E682E4C82E8FE0D82ED2
:1001D000E12CF12C12B112708091C63F181771F109
:1001E0008091C53F882399F0111120C0DA30F0F0DA
:1001F000D2502D2F30E040E050E0C701B6016BD067
:10020000215031092093260A3093270A0FC011117B
:100210000DC0CF3358F0CA508C2F90E080934C0A19
:1002200090934D0A10924A0A10924B0A1093C63FBF
:100230008FE097E20197F1F700C0000012B114704F
:100240008091C43F181771F18091C53F882399F0C0
:10025000111120C0D83BF0F4DE5F2D2F30E040E0DC
:1002600050E0C701B60137D0215031092093260A4A
:100270003093270A0FC011110DC0C83B58F4C65F58
:100280008C2F90E080934C0A90934D0A10924A0A6A
:1002900010924B0A1093C43F8FE097E20197F1F759
:1002A00000C0000082B188709091C33F891709F4A3
:1002B00091CF811107C091E02091C53F211190E0BD
:1002C0009093C53F8093C33F8FE097E20197F1F78A
:1002D00000C000007FCF052E97FB16F400940FD0CE
:1002E00057FD05D014D007FC02D046F408C0509545
:1002F0004095309521953F4F4F4F5F4F0895909512
:100300008095709561957F4F8F4F9F4F0895A1E223
:100310001A2EAA1BBB1BFD010DC0AA1FBB1FEE1F7F
:10032000FF1FA217B307E407F50720F0A21BB30BCA
:10033000E40BF50B661F771F881F991F1A9469F746
:1003400060957095809590959B01AC01BD01CF01A2
:060350000895F894FFCFB0
:00000001FF
